:020000040800F2
:100000003807002031020008B74000085D140008DE
:10001000B5400008130700089142000800000000E6
:10002000000000000000000000000000E5410008A2
:100030001507000800000000B9400008E74100086B
:100040004B0200084B0200084B0200084B0200085C
:100050004B0200084B0200084B0200084B0200084C
:100060004B0200084B0200084B0200084B0200083C
:100070004B0200084B0200084B0200084B0200082C
:100080004B0200084B0200084B0200084B0200081C
:100090004B0200084B0200084B0200084B0200080C
:1000A0004B0200084B0200084B0200084B020008FC
:1000B0004B0200084B0200084B0200084B020008EC
:1000C0004B0200084B0200084B0200084B020008DC
:1000D0004B0200084B0200084B0200084B020008CC
:1000E0004B0200084B0200084B0200084B020008BC
:1000F0004B0200084B0200084B0200084B020008AC
:100100004B0200084B0200084B0200084B0200089B
:100110004B0200084B0200084B0200084B0200088B
:100120004B0200084B0200084B0200084B0200087B
:100130004B0200084B0200084B0200084B0200086B
:100140004B0200084B0200084B0200084B0200085B
:100150004B0200084B0200084B0200084B0200084B
:100160004B0200084B0200084B0200084B0200083B
:100170004B0200084B0200084B0200080000000080
:100180004B0200084B02000800F002F800F041F8B2
:100190000AA090E8000C82448344AAF10107DA45E2
:1001A00001D100F036F8AFF2090EBAE80F0013F0F3
:1001B000010F18BFFB1A43F001031847F05C000061
:1001C000105D0000103A24BF78C878C1FAD85207F1
:1001D00024BF30C830C144BF04680C6070470000C1
:1001E0000023002400250026103A28BF78C1FBD840
:1001F000520728BF30C148BF0B607047642900F028
:10020000EB80002070471FB504F062FA1FBD10B5E7
:1002100010BD00F044FA1146FFF7F5FF04F0C2F8F4
:1002200000F062FA03B4FFF7F2FF03BC00F06AFAD1
:100230000948804709480047FEE7FEE7FEE7FEE77A
:10024000FEE7FEE7FEE7FEE7FEE7FEE704480549B6
:10025000054A064B704700008142000889010008EA
:100260003801002038070020380300203803002020
:1002700053EA020C00F069802DE9F04B4FF00006C4
:10028000002B1FBFB3FA83F503FA05F424FA05F631
:100290005E4012BF1643B2FA82F502FA05F4C5F1C8
:1002A00020051EBF22FA05FC44EA0C04203556EA5C
:1002B000044C4FEA144418BF641C4FF000084FF080
:1002C0000009904271EB030C39D3002919BFB1FA30
:1002D00081F701FA07F6B0FA80F700FA07F6C7F1DE
:1002E00020071EBF20FA07FC46EA0C062037B6FBA3
:1002F000F4FCA7EB0507103F07F01F0BCBF120061E
:100300000CFA0BFB2CFA06F644BFB3460026202F4E
:10031000A4BF5E464FF0000B5BEA060C08BF4FF02F
:10032000010B19EB0B09ABFB027C48EB0608C01B69
:1003300006FB02CC0BFB03CC71EB0C01C1E70B46B7
:10034000024641464846BDE8F08B13B54FF0000029
:100350004FF00001AFF30080BDE81C407047000083
:100360000FB41CB5074B06AA7B446946009005985C
:1003700000F07DF90020694600F08CF91CBC5DF8A6
:1003800014FB00002903000070B50446856900686D
:10039000C10601D5302600E02026C00707D070BD79
:1003A000D4E9012130469047206A401C20626D1E2E
:1003B000F6D570BD70B5044685690078C00707D1D1
:1003C00070BDD4E9012120209047206A401C2062A2
:1003D0006D1EF6D570BD00002DE9F04106460024E3
:1003E00010687529314616A510D0AFF3008000289B
:1003F00002DA404213A507E031688A0701D512A549
:1004000002E0490704D511A5012401E0AFF3008003
:1004100000210A2206F1240709E0B0FBF2FCB0FB40
:10042000F2F302FB1C00303078541846491C0028B7
:10043000F3D123462A463046BDE8F04100F0B9B872
:10044000000000002D0000002B0000002000000034
:100450002DE9F0474FF0000A89460446C0F820A075
:100460002046E1688847002876D0252806D0D4E9C0
:1004700001219047206A401C2062F1E7E168204694
:1004800000258847C4F81CA006460027C4F818A019
:100490002A2E09D0304603F07DFF38B304EB8708DD
:1004A000303EC8F8186019E059F8041B204604EBE8
:1004B00087029161E1688847012F064618D1E069FB
:1004C000002820DA25F020051DE0D8F8180000EB00
:1004D000800006EB40003038C8F818002046E1687C
:1004E0008847064603F056FF0028EED1012F0AD0B8
:1004F0002E2E08D12046E16888477F1C0646022F31
:1005000045F02005C4DBA069002803DA404245F02D
:100510000105A061E80701D025F01005B6B1A6F1EC
:100520004100192802D8203645F400654A46314674
:10053000204625604D46FFF761FE58B1012806D0E0
:10054000ED1D25F0070000F1080989E704E005F139
:10055000040985E730468AE7206ABDE8F0874FF056
:10056000000200B5134694469646203922BFA0E803
:100570000C50A0E80C50B1F12001BFF4F7AF09070F
:1005800028BFA0E80C5048BF0CC05DF804EB890000
:1005900028BF40F8042B08BF704748BF20F8022B43
:1005A00011F0804F18BF00F8012B7047704770475B
:1005B00070472DE9F0470D4699469246044600F1F2
:1005C00024080168880604D5E06921F01001216043
:1005D00000E00120A84201DD471B00E00027A169DF
:1005E0007A1902EB0900081AA0612078C00602D42B
:1005F0002046FFF7C9FE002608E0D4E901211AF8D9
:1006000006009047206A401C761C20624E45F4DBB1
:100610002078C0060AD52046FFF7B6FE06E0D4E9EA
:10062000012130209047206A401C2062381EA7F12B
:100630000107F4DC07E0D4E9012118F80500904730
:10064000206A401C2062281EA5F10105F3DC20462B
:10065000FFF7B0FE2078000602D50220BDE8F08743
:100660000120FBE701694A1C02610878704700B568
:100670008FB0CDE901310021059105497944CDE9DB
:10068000031011466846FFF7E3FE0FB000BD0000FF
:10069000E5FFFFFF0A6802F8010B0A607047754624
:1006A00000F02CF8AE4605006946534620F00700DE
:1006B000854618B020B5FFF7C9FDBDE820404FF0D2
:1006C00000064FF000074FF000084FF0000B21F03C
:1006D0000701AC46ACE8C009ACE8C009ACE8C00909
:1006E000ACE8C0098D46704710B50446AFF30080F2
:1006F0002046BDE81040FFF795BD00000048704758
:10070000D400002001491820ABBEFEE726000200FD
:100710007047FEE7704772B6FEE7000030B5B3F5EC
:10072000804F05D06FF0704140F82210002030BD9E
:100730008C690B688D6823434C688989240144EADD
:100740000524234343EA014150F82230014C234061
:100750001943E9E70000F0CF10B50A6850F82230DD
:1007600023F0010340F822308C68082C23D00023AA
:100770004A682243CC681C430B6922431A434B69E5
:100780000E4C1A43CB691A430B6A1A434B6A1A433D
:100790008B6A1A43CB6A1A430B6B1A438B69134358
:1007A000CA6B09681A4350F82130A343134340F839
:1007B0002130002010BD4023DAE700007FFF0F004A
:1007C00030B5D1E9003443EA04138C688D892402E2
:1007D00044EA054423430C8A074D00EB820005EBF5
:1007E000045423430C7D6D0105EB046489692343A4
:1007F0000B434360002030BD0000F0FF70B504469D
:1008000000F04AF90546601C02D004480078044410
:1008100000F042F9401BA042FAD370BD080000204E
:10082000F0B587B014216846FFF799FE15480168B6
:10083000002924D10121016013480024016841F0FE
:10084000010101600068022500F0010005904FF6EB
:100850008070CDE9000502AA03260C2782E8D000AB
:1008600069460A4800F016F84EF2B370CDE900056B
:1008700002AA694682E8D000054800F00BF807B0EC
:10088000F0BD000000000020383802400010024097
:10089000000C02402DE9F84FDFF8BCA10022012531
:1008A00003264FF00F090AF1040BAAF1040E00BF52
:1008B0000B6805FA02F42340A34270D10F7907F0C8
:1008C0000307012F01D0022F16D187684FEA420893
:1008D00006FA08FC27EA0C07D1F80CC00CFA08FC51
:1008E0004CEA070CC0F808C04768A7430C79C4F36A
:1008F000001494403C4344600C79E443A4070AD0BC
:10090000C4684FEA420C06FA0CF7BC438F6807FA3A
:100910000CF72743C7600C7904F00304022C12D1B2
:10092000D40800EB840CDCF820405707FF0E09FACE
:1009300007F824EA0804D1F8108008FA07F848EA12
:100940000408CCF8208004684FEA420C06FA0CF741
:10095000BC430F7907F0030707FA0CF7274307603A
:100960004C6814F4403F70D03C4C276847F48047F3
:100970002760246822F0030704F480440094384C74
:1009800007EB040CDCF8084897074FEA177809FAD8
:1009900008F7BC43334FB84202D1002724E054E0AB
:1009A000314FB84201D101271EE0304FB84201D18A
:1009B000022719E02E4FB84201D1032714E02D4F32
:1009C000B84201D104270FE02B4FB84201D10527CF
:1009D0000AE02A4FB84201D1062705E0284FB84265
:1009E00001D1072700E0082707FA08F72743CCF8CA
:1009F0000878DAF800405746D1F804C09C435FEA13
:100A0000CC2C00D51C433C60DBF800405F46D1F89D
:100A100004C09C435FEA8C2C00D51C433C60DEF88C
:100A200000407746D1F804C09C435FEA8C3C00D577
:100A30001C433C60084F083F3C68D1F804C09C430D
:100A40005FEACC3C00D51C433C60521C102AFFF4EA
:100A50002FAFBDE8F88F0000083C01404438024049
:100A60000030014000000240000402400008024043
:100A7000000C024000100240001402400018024026
:100A8000001C02400069084000D0012070470AB1F4
:100A9000816170470904FBE70148806870470000E6
:100AA0000800002002488168027811448160704784
:100AB000080000200B4810B5016841F40071016086
:100AC000016841F480610160016841F48071016056
:100AD000032000F061F80F2000F006F800F024F881
:100AE000002010BD003C024070B50D4D04464FF48F
:100AF0007A712878B1FBF0F00A490968B1FBF0F08F
:100B000000F098FC48B9102C07D200222146501E54
:100B100000F022F800206C6070BD012070BD000064
:100B200008000020140000200A4808B5016841F4BC
:100B300080410160006800F4804000900548001F7B
:100B4000016841F080510160006800F08050009021
:100B500008BD000044380240F0B40E4B1B680C4640
:100B6000C3F30223C3F10705042D00D90425191D81
:100B7000072901D2002300E0DB1E012606FA05F159
:100B8000491E214099409E40761E16403143F0BCDC
:100B900003F0F0BB0CED00E0064900F00702086826
:100BA0004FF6FF03184040EA0220034A1043086052
:100BB000704700000CED00E00000FA052DE9F04759
:100BC0000E46050065D0DFF81481D8F80000F7B2B2
:100BD00000F00700B04207D288F80070D8F8000093
:100BE00000F00700B04254D128683D4C810712D56F
:100BF000400703D5206840F4E050206028780007C3
:100C000003D5206840F4604020602068A96820F087
:100C1000F000084320602878C0072DD0304968686C
:100C20000839012812D0022813D0032811D00968EE
:100C3000890700292DDA216821F003010143216091
:100C4000FFF72AFF814641F2883A0EE009688903DE
:100C5000EFE709688901ECE7FFF71EFFA0EB090148
:100C6000514502D90320BDE8F0872068696800F08B
:100C70000C00B0EB810FEFD1D8F80010404601F026
:100C80000701B14207D90770006800F00700B042C1
:100C900001D00120E7E72878400705D52068E968FA
:100CA00020F4E050084320602878000706D520682B
:100CB000296920F4604040EAC100206000F018F883
:100CC0002168084AC1F30311515CC8400649086015
:100CD00006480068FFF708FF0020C4E7003C024018
:100CE00008380240DA460008140000200C000020FA
:100CF000154810B5006810F00C02144813D04110CC
:100D0000042A0FD0082A0ED10F4C241F2268236812
:100D100002F03F025B0207D52068C0F38810A0FBF9
:100D2000010106E0084610BD2168C1F38811A1FB4E
:100D300000010023FFF79CFA2168C1F30141491C1F
:100D40004900B0FBF1F010BD083802400024F40067
:100D50002DE9F84F04006ED02078DFF84C93C007DF
:100D6000A9F104054AD009F104000168C1F3810129
:100D7000012908D00068C0F3810002280AD1D9F8FF
:100D80000000400206D52868800337D56068002837
:100D9000E1D033E06068B0F5803F10D0B0F5A02F0F
:100DA000286810D020F480302860286820F4802043
:100DB00028606068A8B1FFF76FFE06460DE028685E
:100DC00040F48030F4E740F480202860F7E700BF6B
:100DD000FFF762FE801B642873D828688003F7D56C
:100DE0000CE0FFF759FE064605E000BFFFF754FE92
:100DF000801B6428F0D828688003F7D42078DFF8B7
:100E0000AC8280074FF0000A3ED5A748001D01685C
:100E100011F00C0F08D00068C0F3810002280BD13C
:100E2000D9F80000400207D42868800716D5E0688A
:100E3000012800D112E033E1E068B8B10120C8F820
:100E40000000FFF729FE064605E000BFFFF724FE7D
:100E5000801B0228C0D828688007F7D52868216938
:100E600020F0F80040EAC10028600DE0C8F800A0BA
:100E7000FFF712FE064604E0FFF70EFE801B022875
:100E80001FD828688007F7D42078000722D5864F1E
:100E900087486169703771B101210160FFF7FCFD7E
:100EA000064604E0FFF7F8FD801B022809D83868E1
:100EB0008007F7D50EE0C0F800A0FFF7EDFD06466D
:100EC00005E082E0FFF7E8FD801B02287DD8386846
:100ED0008007F7D42078400768D5DFF8CCB1002729
:100EE0000BF13C0BDBF80000C0000BD4DBF800106A
:100EF00041F08051CBF80010DBF80000012700F032
:100F0000805000906B4E3068C00510D4306840F4BB
:100F100080703060FFF7C0FD009005E0FFF7BCFD7A
:100F20000099401A022850D83068C005F6D55E4EA8
:100F3000A0686C3601280FD00528306810D020F04A
:100F400001003060306820F004003060A068B8B163
:100F5000FFF7A2FD00900FE0306840F00100F4E7D9
:100F600040F004003060F7E7FFF796FD0099411A62
:100F700041F28830814266D830688007F4D50EE0AF
:100F8000FFF78AFD009007E0FFF786FD0099411A00
:100F900041F28830814256D830688007F4D42FB1AE
:100FA000DBF8001021F08051CBF80010A069C8B325
:100FB0003D49091D0968C1F3810102294AD002286F
:100FC000504607D0C8F8600000E03CE0FFF764FD41
:100FD00004463BE04746C8F86000FFF75DFD064663
:100FE00005E000BFFFF758FD801B02282BD82868BA
:100FF0008001F7D4D4E907010843A16A2E4A4908C1
:1010000002EB0141626A41EA8211084394F82C1014
:1010100040EA0161C9F8001001203866FFF73CFD85
:10102000044606E03EE000BFFFF736FD001B022845
:1010300009D828688001F7D534E000BFFFF72CFD00
:10104000001B022802D90320BDE8F88F2868800120
:10105000F4D427E00128F7D0D9F80000E26900F4C1
:10106000800191421CD1226A00F03F01914217D1C8
:1010700047F6C071626A0140B1EB821F10D1A26ACB
:101080004FF0FF3300F4403103EB5202B1EB024F5B
:1010900006D194F82C1000F07060B0EB016F01D015
:1010A0000120D1E70020CFE704380240000047428A
:1010B000800E4742007000400000FFFF70B5040042
:1010C00009D0606A002540B125616561A56294F888
:1010D000510040B10CE0012070BD6068B0F5827F26
:1010E000F4D0E561F2E784F85050204600F044F86F
:1010F000022084F851002068016821F0400101605D
:10110000A088218900F4827001F404410843A18978
:1011100001F400610843217C01F002010843217DB4
:1011200001F001010843218B01F400710843217F84
:1011300001F03801084394F8201001F080010843C1
:10114000218D01F40051084321680860A069042141
:1011500001EA104094F8241001F0100108432168BE
:1011600048602068C16921F40061C16165650120A2
:1011700084F85100002070BD10B586B004461421DB
:101180006846FFF7ECF914492068884221D11348DA
:101190000021026842F480420260006800F480404E
:1011A00005900E481038026842F0020202600068A2
:1011B00000F0020005904FF4604000900220CDE95D
:1011C0000101032003900520049069460448FFF7BD
:1011D00061FB06B010BD00000038004040380240FE
:1011E000000402402DE9FF4F81B01D46934604469E
:1011F0004FF001090E9EFFF74FFC074694F851008F
:101200006168012806D0B1F5827F3CD1A168C9BBD5
:10121000042838D10298002871D0BBF1000FFBD010
:10122000002DF9D094F8500001282CD04FF0010A7D
:1012300084F850A094F85100042802D0052084F8C6
:1012400051004FF00008C4F85480C4F838B0E58766
:10125000A58702992163E586A586C4F84080C4F875
:10126000448020680168490603D4016841F04001C8
:101270000160E068B0F5006F606808D0F0B3012D40
:1012800049D081E0FFE7022005B0BDE8F08F08B14A
:10129000012D39D1206B21680088C860206B801C2B
:1012A0002063E08E401EE0862EE02068816889077A
:1012B0000FD5E18E69B1B9F1010F0AD1216B09880F
:1012C000C160206B801C2063E08E401EE0864FF0E2
:1012D000000920688168C9070CD0E18F51B1C0684E
:1012E000A16B0880A06B801CA063E08F401EE0878C
:1012F0004FF00109FFF7D0FBC01B01E00BE067E0F6
:10130000B04201D3701C50D1E08E0028CDD1E08FC7
:101310000028CAD13EE0206B216800780873206B5A
:10132000401C2063E08E401EE0862DE0206881682E
:1013300089070FD5E18E69B1B9F1010F0AD1216B8F
:1013400009780173206B401C2063E08E401EE0860C
:101350004FF0000920688168C9070CD0E18F51B1B6
:10136000C068A16B0870A06B401CA063E08F401E9A
:10137000E0874FF00109FFF78FFBC01BB04202D39B
:10138000701C01D011E086B1E08E0028CED1E08F34
:101390000028CBD13A463146204602F08FFE50B1AC
:1013A0002020606584F8508012E084F851A084F811
:1013B0005080032068E7A06818B92068C168806879
:1013C000009084F851A084F85080606D0028F1D01E
:1013D000012059E770B515460E46040003D094F875
:1013E000490010B107E0012070BD002084F84800DA
:1013F000204600F01DF804F108012068FFF7ACF961
:101400003146A2682068FFF7DBF9D4E901022946DA
:10141000236BFFF783F92168A06851F8202042F080
:10142000010241F82020012084F84900002070BD0D
:10143000FFF7F6B910B5401EB0F1807F01D301204F
:1014400010BD4FF0E02460610F21601702F092FFA1
:101450000020A06107202061002010BDFEE70000F1
:1014600070B509490646002408884D882146454341
:10147000204602F01DFC02F041FD044801E0068018
:10148000641CAC42FBD370BDC400002000000860A7
:101490002DE9F04F2B492C260A46887192884FF48B
:1014A000305A4FF4285B4FF4487541F6631E2B27E2
:1014B0004FF02A0C4FF0F00845F210594FF4A07489
:1014C0004FF4F073B8B10C80A1F802804A4532D1D4
:1014D000A1F808A0A1F80AB0380288810D804B80DD
:1014E000A2F5A640103801D10B804C80BDE8F04F2A
:1014F000002002F01DBBA1F800804C804A4507D1B6
:10150000A1F808A0A1F80AB04FF42C50888105E09A
:1015100072450E8105D14F81A1F80CC00B804D8022
:1015200002E0A1F80AC08F81A2F5A6401038DDD1F3
:101530000C804B80DAE70E81A1F80AC072458F81DA
:10154000CCD0CDE7C40000202DE9F0419046304AD0
:101550000D460446060A918810462F0A4089A1F5D7
:10156000AA43103B0FD0A1F5C853633B24D002F02F
:10157000B9FC304602F0AAFCE0B202F0A7FC908968
:1015800002F0B0FC36E002F0ADFC304602F09EFC0A
:101590005089401C80B202F0A5FCE0B202F096FC3B
:1015A000908902F09FFC384602F090FC9089401C24
:1015B00080B202F097FC20E0917919B91188091BDB
:1015C000491E8CB202F08EFC260A304602F07EFCE8
:1015D000E0B202F07BFC304602F078FCE0B202F0B0
:1015E00075FC908902F07EFC384602F06FFCE8B290
:1015F00002F06CFC384602F069FCE8B202F066FCCE
:10160000044910890880891CA1F80080BDE8F08198
:10161000C4000020FEFF07602DE9F05F3220FFF7D5
:10162000EDF8D32002F05EFC02F050FAFE4CA080F0
:1016300002F04CFAA08002F049FA4FF6FF7505EA75
:101640000020A08002F042FAA18849F24138084304
:10165000A08041F6631947F2897645F2103A45F2C7
:1016600010574FF4704B404574D0042002F03AFC00
:1016700002F02CFAA08002F029FAA08002F026FAEB
:1016800005EA0020A08002F021FAA1880843A0F515
:101690000541A08052397DD0B0425BD0D42002F009
:1016A00021FC02F013FAA08002F010FAA08002F0F0
:1016B0000DFA05EA0020A08002F008FAA18808438C
:1016C000A080504546D05521584602F021FCAA2161
:1016D0004FF2010002F01CFC52214FF2020002F016
:1016E00017FC08214FF2030002F012FC01214FF217
:1016F000040002F00DFC4FF4454002F0F3FB02F051
:10170000E5F905EA0020A0804CF2015002F0EAFB66
:1017100002F0DCF9A1880843A0800520FFF76EF8ED
:10172000A088B0F5004F7CD0B84213D0A12002F0C1
:10173000D9FB02F0CBF9A08002F0C8F905EA00203D
:10174000A08002F0C3F9A1880843A0F5AE41A080B3
:10175000613967D080B2404565D1CF2002F0C2FB2D
:10176000002002F0B3FBC12002F0B0FB302002F0F9
:10177000ADFBED2002F0B6FB642002F0A7FB0320D6
:1017800002F0A4FB122002F0A1FB812002F09EFBDC
:10179000E82000E0F9E002F0A5FB852002F096FBCE
:1017A000102002F093FB7A2002F090FBCB2002F095
:1017B00099FB392002F08AFB2C2002F087FB0020E5
:1017C00002F084FB342002F081FB022002F07EFB59
:1017D000F72002F087FB202002F078FBEA2002F0DD
:1017E00081FB002002F072FB002002F06FFBC020A2
:1017F00002F078FB1B2002F069FBC12002F072FBB3
:10180000012002F063FBC52002F06CFB302002F0E7
:101810005DFB302002F05AFBC72002F063FBB720CB
:1018200002E0B8E0B3E0B9E002F050FB362002F08D
:1018300059FB482002F04AFB3A2002F053FB5520A6
:1018400002F044FBB12002F04DFB002002F03EFB11
:101850001A2002F03BFBB62002F044FB0A2002F003
:1018600035FBA22002F032FBF22002F03BFB00200D
:1018700002F02CFB262002F035FB012002F026FBB3
:10188000E02002F02FFB0F2002F020FB2A2002F0C4
:101890001DFB282002F01AFB082002F017FB0E2087
:1018A00002F014FB082002F011FB542002F00EFBA2
:1018B000A92002F00BFB432002F008FB0A2002F0F3
:1018C00005FB0F2002F002FB002002F0FFFA0020CF
:1018D00002F0FCFA002002F0F9FA002002F0F6FA19
:1018E000E12002F0FFFA002002F0F0FA152002F0E9
:1018F000EDFA172002F0EAFA072002F0E7FA1120C9
:1019000002F0E4FA062002F0E1FA2B2002F0DEFAFF
:10191000562002F0DBFA3C2002F0D8FA052002F053
:10192000D5FA102002F0D2FA0F2002F0CFFA3F20B1
:1019300002F0CCFA3F2002F0C9FA0F2002F0C6FAFA
:101940002B2002F0CFFA002002F0C0FA002002F0B3
:10195000BDFA012002F0BAFA3F2002F0B7FA2A20BD
:1019600002F0C0FA002002F0B1FA002002F0AEFA54
:10197000002002F0ABFAEF2002F0A8FA112002F0EA
:10198000B1FA7820FEF73AFFDEE0A68008E0A4F87E
:10199000049001F0DBBFA78001F057B8B0427CD1C2
:1019A000112002F09FFA7820FEF728FF362002F07F
:1019B00099FA002002F08AFA3A2002F093FA052000
:1019C00002F084FAB22002F08DFA0C2002F07EFAC6
:1019D0000C2002F07BFA002002F078FA332002F0AB
:1019E00075FA332002F072FAB72002F07BFA352044
:1019F00002F06CFABB2002F075FA322002F066FAAF
:101A0000C02002F06FFA0C2002F060FAC22002F04F
:101A100069FA012002F05AFAC32002F063FA10209A
:101A200002F054FAC42001E0C400002002F05AFA87
:101A3000202002F04BFAC62002F054FA0F2002F0E8
:101A400045FAD02002F04EFAA42002F03FFAA1207D
:101A500002F03CFAE02002F045FAD02002F036FA1B
:101A6000002002F033FA022002F030FA072002F0E0
:101A70002DFA0A2002F02AFA282002F027FA322052
:101A800002F024FA442002F021FA422002F01EFA69
:101A9000062002F01BFA0E2000E058E002F016FAD1
:101AA000122002F013FA142002F010FA172002F0AC
:101AB0000DFAE12002F016FAD02002F007FA002019
:101AC00002F004FA022002F001FA072002F0FEF907
:101AD0000A2002F0FBF9282002F0F8F9312002F088
:101AE000F5F9542002F0F2F9472002F0EFF90E2048
:101AF00002F0ECF91C2002F0E9F9172002F0E6F9F7
:101B00001B2002F0E3F91E2002F0E0F92A2002F087
:101B1000E9F9002002F0DAF9002002F0D7F90020FC
:101B200002F0D4F9EF2002F0D1F92B2002F0DAF91B
:101B3000002002F0CBF9002002F0C8F9012002F0E9
:101B4000C5F93F2002F0C2F9292001F0FABE504544
:101B50007ED1ED2002F0C6F9012002F0B7F9FE2097
:101B600002F0B4F9EE2002F0BDF9DE2002F0AEF989
:101B7000212002F0ABF9F12002F0B4F9012002F0CB
:101B8000A5F9DF2002F0AEF9102002F09FF9C42081
:101B900002F0A8F98F2002F099F9C62002F0A2F90C
:101BA000002002F093F9E22002F090F9E22002F026
:101BB0008DF9E22002F08AF9BF2002F093F9AA2001
:101BC00002F084F9B02002F08DF90D2002F07EF9C8
:101BD000002002F07BF90D2002F078F9002002F0DD
:101BE00075F9112002F072F9002002F06FF9192046
:101BF00002F06CF9002002F069F9212002F066F988
:101C0000002002F063F92D2002F060F9002002F0BC
:101C10005DF93D2002F05AF9002002F057F95D20ED
:101C200002F054F9002002F051F95D2002F04EF963
:101C3000002002F04BF9B12002F054F9802002F0AC
:101C400045F9002002F042F98B2002F03FF900E054
:101C5000FDE3002002F03AF9962002F037F9002067
:101C600002F034F9B22002F03DF9002002F02EF922
:101C7000002002F02BF9022002F028F9002002F0E7
:101C800025F9032002F022F9002002F01FF9B32009
:101C900002F028F9002002F019F9002002F016F9EC
:101CA000002002F013F9002002F010F9002002F0E9
:101CB0000DF9002002F00AF9002002F007F90020D7
:101CC00002F004F9002002F001F9002002F0FEF811
:101CD000002002F0FBF8002002F0F8F8002002F0EB
:101CE000F5F8002002F0F2F8002002F0EFF80020F2
:101CF00002F0ECF8002002F0E9F8002002F0E6F82B
:101D0000002002F0E3F8002002F0E0F8002002F0EA
:101D1000DDF8002002F0DAF8002002F0D7F8002009
:101D200002F0D4F8B42002F0DDF88B2002F0CEF8F7
:101D3000002002F0CBF8962002F0C8F8002002F054
:101D4000C5F8A12002F0C2F8002002F0BFF8B520CB
:101D500002F0C8F8022002F0B9F8002002F0B6F84C
:101D6000032002F0B3F8002002F0B0F8042002F0E3
:101D7000ADF8002002F0AAF8B62002F0B3F8002077
:101D800002F0A4F8002002F0A1F8B72002F0AAF8AF
:101D9000002002F09BF8002002F098F83F2002F0AB
:101DA00095F8002002F092F85E2002F08FF80020F3
:101DB00002F08CF8642002F089F8002002F086F826
:101DC0008C2002F083F8002002F080F8AC2002F0B2
:101DD0007DF8002002F07AF8DC2002F077F800208D
:101DE00002F074F8702002F071F8002002F06EF832
:101DF000902002F06BF8002002F068F8EB2002F06F
:101E000065F8002002F062F8DC2002F05FF80020A4
:101E100002F05CF8B82002F065F8002002F056F8F5
:101E2000002002F053F8002002F050F8002002F0E9
:101E30004DF8002002F04AF8002002F047F8002098
:101E400002F044F8002002F041F8BA2002F04AF80B
:101E5000242002F03BF8002002F038F8002002F0C5
:101E600035F8002002F032F8C12002F03BF82020C3
:101E700002F02CF8002002F029F8542002F026F895
:101E8000002002F023F8FF2002F020F8002002F0EA
:101E90001DF8C22002F026F80A2002F017F80020F0
:101EA00002F014F8042002F011F8002002F00EF8FD
:101EB000C32002F017F83C2002F008F8002002F0DE
:101EC00005F83A2002F002F8002001F0FFFF392067
:101ED00001F0FCFF002001F0F9FF372001F0F6FFD0
:101EE000002001F0F3FF3C2001F0F0FF002001F0A2
:101EF000EDFF362001F0EAFF002001F0E7FF32207D
:101F000001F0E4FF002001F0E1FF2F2001F0DEFFEF
:101F1000002001F0DBFF2C2001F0D8FF002001F0B1
:101F2000D5FF292001F0D2FF002001F0CFFF2620AD
:101F300001F0CCFF002001F0C9FF242001F0C6FF12
:101F4000002001F0C3FF242001F0C0FF002001F0B9
:101F5000BDFF232001F0BAFF002001F0B7FF3C20B5
:101F600001F0B4FF002001F0B1FF362001F0AEFF18
:101F7000002001F0ABFF322001F0A8FF002001F0AB
:101F8000A5FF2F2001F0A2FF002001F09FFF2C20D1
:101F900001F09CFF002001F099FF292001F096FF3D
:101FA000002001F093FF262001F090FF002001F0B7
:101FB0008DFF242001F08AFF002001F087FF2420FC
:101FC00001F084FF002001F081FF232001F07EFF5B
:101FD000002001F07BFFC42001F084FF622001F0AB
:101FE00075FF002001F072FF052001F06FFF002057
:101FF00001F06CFF842001F069FF002001F066FF12
:10200000F02001F063FF002001F060FF182001F0D4
:102010005DFF002001F05AFFA42001F057FF0020CF
:1020200001F054FF182001F051FF002001F04EFF95
:10203000502001F04BFF002001F048FF0C2001F080
:1020400045FF002001F042FF172001F03FFF002074
:1020500001F03CFF952001F039FF002001F036FF30
:10206000F32001F033FF002001F030FFE62001F003
:102070002DFF002001F02AFFC52001F033FF3220A0
:1020800001F024FF002001F021FF442001F01EFF99
:10209000002001F01BFF652001F018FF002001F077
:1020A00015FF762001F012FF002001F00FFF8820BD
:1020B00001F00CFF002001F009FFC62001F012FF23
:1020C000202001F003FF002001F000FF172001F0A5
:1020D000FDFE002001F0FAFE012001F0F7FE0020D5
:1020E00001F0F4FEC72001F0FDFE002001F0EEFE3D
:1020F000002001F0EBFE002001F0E8FE002001F0DE
:10210000E5FEC82001F0EEFE002001F0DFFE002019
:1021100001F0DCFE002001F0D9FE002001F0D6FE27
:10212000C92001F0DFFE002001F0D0FE002001F008
:10213000CDFE002001F0CAFE002001F0C7FE002005
:1021400001F0C4FE002001F0C1FE002001F0BEFE3F
:10215000002001F0BBFE002001F0B8FE002001F0DD
:10216000B5FE002001F0B2FE002001F0AFFE00201D
:1021700001F0ACFE002001F0A9FE002001F0A6FE57
:10218000002001F0A3FEE02001F0ACFE162001F0DB
:102190009DFE002001F09AFE1C2001F097FE002019
:1021A00001F094FE212001F091FE002001F08EFE4E
:1021B000362001F08BFE002001F088FE462001F061
:1021C00085FE002001F082FE522001F07FFE0020FB
:1021D00001F07CFE642001F079FE002001F076FE23
:1021E0007A2001F073FE002001F070FE8B2001F0D8
:1021F0006DFE002001F06AFE992001F067FE0020CC
:1022000001F064FEA82001F061FE002001F05EFEF6
:10221000B92001F05BFE002001F058FEC42001F05F
:1022200055FE002001F052FECA2001F04FFE0020B2
:1022300001F04CFED22001F049FE002001F046FEE4
:10224000D92001F043FE002001F040FEE02001F023
:102250003DFE002001F03AFEF32001F037FE0020A1
:1022600001F034FEE12001F03DFE162001F02EFECB
:10227000002001F02BFE1C2001F028FE002001F0C0
:1022800025FE222001F022FE002001F01FFE362054
:1022900001F01CFE002001F019FE452001F016FEA1
:1022A000002001F013FE522001F010FE002001F08A
:1022B0000DFE642001F00AFE002001F007FE7A20E6
:1022C00001F004FE002001F001FE8B2001F0FEFD74
:1022D000002001F0FBFD992001F0F8FD002001F045
:1022E000F5FDA82001F0F2FD002001F0EFFDB9207E
:1022F00001F0ECFD002001F0E9FDC42001F0E6FD55
:10230000002001F0E3FDCA2001F0E0FD002001F013
:10231000DDFDD22001F0DAFD002001F0D7FDD8204C
:1023200001F0D4FD002001F0D1FDE02001F0CEFD50
:10233000002001F0CBFDF32001F0C8FD002001F0EA
:10234000C5FDE22001F0CEFD052001F0BFFD00201B
:1023500001F0BCFD0B2001F0B9FD002001F0B6FD3D
:102360001B2001F0B3FD002001F0B0FD342001F08E
:10237000ADFD002001F0AAFD442001F0A7FD0020E2
:1023800001F0A4FD4F2001F0A1FD002001F09EFD11
:10239000612001F09BFD002001F098FD792001F003
:1023A00095FD002001F092FD882001F08FFD0020B6
:1023B00001F08CFD972001F089FD002001F086FDE1
:1023C000A62001F083FD002001F080FDB72001F080
:1023D0007DFD002001F07AFDC22001F077FD002094
:1023E00001F074FDC72001F071FD002001F06EFDC9
:1023F000D12001F06BFD002001F068FDD62001F036
:1024000065FD002001F062FDDD2001F05FFD002090
:1024100001F05CFDF32001F059FD002001F056FDB4
:10242000E32001F05FFD052001F050FD002001F0E8
:102430004DFD0A2001F04AFD002001F047FD1C205F
:1024400001F044FD002001F041FD332000E0FAE2FC
:1024500001F03CFD002001F039FD442001F036FD83
:10246000002001F033FD502001F030FD002001F08C
:102470002DFD622001F02AFD002001F027FD7820CB
:1024800001F024FD002001F021FD882001F01EFD57
:10249000002001F01BFD972001F018FD002001F045
:1024A00015FDA62001F012FD002001F00FFDB72060
:1024B00001F00CFD002001F009FDC22001F006FD35
:1024C000002001F003FDC72001F000FD002001F015
:1024D000FDFCD12001F0FAFC002001F0F7FCD52032
:1024E00001F0F4FC002001F0F1FCDD2001F0EEFC35
:1024F000002001F0EBFCF32001F0E8FC002001F0EB
:10250000E5FCE42001F0EEFC012001F0DFFC0020FE
:1025100001F0DCFC012001F0D9FC002001F0D6FC28
:10252000022001F0D3FC002001F0D0FC2A2001F0B1
:10253000CDFC002001F0CAFC3C2001F0C7FC0020CB
:1025400001F0C4FC4B2001F0C1FC002001F0BEFCF6
:102550005D2001F0BBFC002001F0B8FC742001F00C
:10256000B5FC002001F0B2FC842001F0AFFC00209B
:1025700001F0ACFC932001F0A9FC002001F0A6FCC6
:10258000A22001F0A3FC002001F0A0FCB32001F088
:102590009DFC002001F09AFCBE2001F097FC002079
:1025A00001F094FCC42001F091FC002001F08EFCAD
:1025B000CD2001F08BFC002001F088FCD32001F03D
:1025C00085FC002001F082FCDD2001F07FFC002072
:1025D00001F07CFCF32001F079FC002001F076FC96
:1025E000E52001F07FFC002001F070FC002001F0EC
:1025F0006DFC002001F06AFC002001F067FC022065
:1026000001F064FC002001F061FC292001F05EFC77
:10261000002001F05BFC3C2001F058FC002001F0A0
:1026200055FC4B2001F052FC002001F04FFC5D20D6
:1026300001F04CFC002001F049FC742001F046FC44
:10264000002001F043FC842001F040FC002001F058
:102650003DFC932001F03AFC002001F037FCA22061
:1026600001F034FC002001F031FCB32001F02EFC1D
:10267000002001F02BFCBE2001F028FC002001F01E
:1026800025FCC42001F022FC002001F01FFCCD201D
:1026900001F01CFC002001F019FCD32001F016FC15
:1026A000002001F013FCDC2001F010FC002001F000
:1026B0000DFCF32001F00AFC002001F007FCE620ED
:1026C00001F010FC112001F001FC002001F0FEFBE4
:1026D000342001F0FBFB002001F0F8FB562001F054
:1026E000F5FB002001F0F2FB762001F0EFFB00206B
:1026F00001F0ECFB772001F0E9FB002001F0E6FBA4
:10270000662001F0E3FB002001F0E0FB882001F0EF
:10271000DDFB002001F0DAFB992001F0D7FB00205F
:1027200001F0D4FBBB2001F0D1FB002001F0CEFB77
:10273000992001F0CBFB002001F0C8FB662001F0DE
:10274000C5FB002001F0C2FB552001F0BFFB0020BB
:1027500001F0BCFB552001F0B9FB002001F0B6FBF5
:10276000452001F0B3FB002001F0B0FB432001F055
:10277000ADFB002001F0AAFB442001F0A7FB0020E4
:1027800001F0A4FBE72001F0ADFB322001F09EFB3D
:10279000002001F09BFB552001F098FB002001F088
:1027A00095FB762001F092FB002001F08FFB662064
:1027B00001F08CFB002001F089FB672001F086FB13
:1027C000002001F083FB672001F080FB002001F076
:1027D0007DFB872001F07AFB002001F077FB992038
:1027E00001F074FB002001F071FBBB2001F06EFBD7
:1027F000002001F06BFB992001F068FB002001F044
:1028000065FB772001F062FB002001F05FFB4420B4
:1028100001F05CFB002001F059FB562001F056FB53
:10282000002001F053FB232001F050FB002001F0B9
:102830004DFB332001F04AFB002001F047FB45200F
:1028400001F044FB002001F041FBE82001F04AFBCD
:10285000002001F03BFB002001F038FB992001F043
:1028600035FB002001F032FB872001F02FFB002018
:1028700001F02CFB882001F029FB002001F026FB51
:10288000772001F023FB002001F020FB662001F0FF
:102890001DFB002001F01AFB882001F017FB00202F
:1028A00001F014FBAA2001F011FB002001F00EFB47
:1028B000BB2001F00BFB002001F008FB992001F088
:1028C00005FB002001F002FB662001F0FFFA00206A
:1028D00001F0FCFA552001F0F9FA002001F0F6FAB7
:1028E000552001F0F3FA002001F0F0FA442001F045
:1028F000EDFA002001F0EAFA442001F0E7FA0020A6
:1029000001F0E4FA552001F0E1FA002001F0DEFACE
:10291000E92001F0E7FAAA2001F0D8FA002001F03E
:10292000D5FA002001F0D2FA002001F0CFFA002001
:1029300001F0D8FAAA2001F0C9FACF2001F0D2FAAA
:10294000002001F0C3FA002001F0C0FA002001F0DD
:10295000BDFA002001F0BAFA002001F0B7FA002019
:1029600001F0B4FA002001F0B1FA002001F0AEFA53
:10297000002001F0ABFA002001F0A8FA002001F0DD
:10298000A5FA002001F0A2FA002001F09FFA002031
:1029900001F09CFA002001F099FA002001F096FA6B
:1029A000002001F093FAF02001F09CFA002001F0E1
:1029B0008DFA502001F08AFA002001F087FA0020F9
:1029C00001F084FA002001F081FAF32001F08AFA84
:1029D000002001F07BFAF92001F084FA062001F0D2
:1029E00075FA102001F072FA292001F06FFA002028
:1029F00001F06CFA3A2001F075FA552001F066FA00
:102A0000112001F06FFA6420FDF7F8FE292001F093
:102A100069FA352001F066FA002001F057FA5120DA
:102A200001F060FAFF2001F051FA532001F05AFA48
:102A30002C2001F04BFA552001F054FA822001F0CD
:102A400045FA2C20FDE3B8427DD15521584601F0CE
:102A50005FFA4FF20103AA21184601F059FA4FF22A
:102A600002045221204601F053FA661C0821304628
:102A700001F04EFAA71C0121384601F049FA0D2158
:102A80004FF4304001F044FA0D214BF2010001F007
:102A90003FFA0D214BF2020001F03AFA4FF43648AA
:102AA0003421404601F034FA34214BF2016001F048
:102AB0002FFA34214BF2026001F02AFA4FF4314927
:102AC0000D21484601F024FA4BF2011A0D2150461F
:102AD00001F01EFA0D214BF2021001F019FA342117
:102AE0004FF4374001F014FA34214BF2017001F039
:102AF0000FFA34214BF2027001F00AFA00214FF470
:102B0000324001F005FA00214BF2012001F000FAF9
:102B100000214BF2022001F0FBF924214FF4384050
:102B200001F0F6F924214BF6010001F0F1F924211E
:102B30004BF6020001F0ECF901214FF43F4001F0A7
:102B4000E7F90F2100E0FDE34FF4334001F0E0F935
:102B50000F214BF2013001F0DBF90F214BF2023073
:102B600001F0D6F934214FF4394001F0D1F9342184
:102B70004BF6011001F0CCF934214BF6021001F0B4
:102B8000C7F908214FF4354001F0C2F908214BF292
:102B9000015001F0BDF908214BF2025001F0B8F9E3
:102BA00003214FF4424001F0B3F924214FF43A409D
:102BB00001F0AEF924214BF6012001F0A9F92421FE
:102BC0004BF6022001F0A4F900214FF43C4001F043
:102BD0009FF978214BF6014001F09AF900214BF65C
:102BE000024001F095F900214FF43D4001F090F9C9
:102BF00078214BF6015001F08BF900214BF6025081
:102C000001F086F900214FF43E4001F081F9642182
:102C10004BF6016001F07CF900214FF4514001F0C6
:102C200077F933214DF2011001F072F900214DF2D4
:102C3000021001F06DF934214DF2031001F068F932
:102C400000214DF2041001F063F93A214DF2051014
:102C500001F05EF900214DF2061001F059F94A2108
:102C60004DF2071001F054F900214DF2081001F067
:102C70004FF95C214DF2091001F04AF900214DF2A3
:102C80000A1001F045F981214DF20B1001F040F9D5
:102C900000214DF20C1001F03BF9A6214DF20D1070
:102CA00001F036F900214DF20E1001F031F9E52165
:102CB0004DF20F1001F02CF901214DF2101001F02E
:102CC00027F913214DF2111001F022F901214DF2E3
:102CD000121001F01DF954214DF2131001F018F9F2
:102CE00001214DF2141001F013F982214DF215105B
:102CF00001F00EF901214DF2161001F009F9CA2177
:102D00004DF2171001F004F902214DF2181001F0F4
:102D1000FFF800214DF2191001F0FAF802214DF2EE
:102D20001A1001F0F5F801214DF21B1001F0F0F836
:102D300002214DF21C1001F0EBF834214DF21D1070
:102D400001F0E6F802214DF21E1001F0E1F86721D2
:102D50004DF21F1001F0DCF802214DF2201001F0BD
:102D6000D7F884214DF2211001F0D2F802214DF262
:102D7000221001F0CDF8A4214DF2231001F0C8F883
:102D800002214DF2241001F0C3F8B7214DF22510B5
:102D900001F0BEF802214DF2261001F0B9F8CF2162
:102DA0004DF2271001F0B4F802214DF2281001F085
:102DB000AFF8DE214DF2291001F0AAF802214DF200
:102DC0002A1001F0A5F8F2214DF22B1001F0A0F825
:102DD00002214DF22C1001F09BF8FE214DF22D1036
:102DE00001F096F803214DF22E1001F091F8102118
:102DF0004DF22F1001F08CF803214DF2301001F04C
:102E000087F833214DF2311001F082F803214DF2A1
:102E1000321001F07DF86D214DF2331001F078F899
:102E200000214FF4524001F073F833214DF201209C
:102E300001F06EF800214DF2022001F069F8342112
:102E40004DF2032001F064F800214DF2042001F05E
:102E50005FF83A214DF2052001F05AF800214DF2B9
:102E6000062001F055F84A214DF2072001F050F8F4
:102E700000214DF2082001F04BF85C214DF20920B1
:102E800001F046F800214DF20A2001F041F88121BD
:102E90004DF20B2001F03CF800214DF20C2001F026
:102EA00037F8A6214DF20D2001F032F800214DF245
:102EB0000E2001F02DF8E5214DF20F2001F028F849
:102EC00001214DF2102001F023F813214DF21120C1
:102ED00001F01EF801214DF2122001F019F85421E1
:102EE0004DF2132001F014F801214DF2142001F0ED
:102EF0000FF882214DF2152001F00AF801214DF260
:102F0000162001F005F8CA214DF2172001F000F853
:102F100002214DF2182000F0FBFF00214DF2192094
:102F200000F0F6FF02214DF21A2000F0F1FF01211E
:102F30004DF21B2000F0ECFF02214DF21C2000F0AE
:102F4000E7FF34214DF21D2000F0E2FF02214DF297
:102F50001E2000F0DDFF67214DF21F2000F0D8FF9A
:102F600002214DF2202000F0D3FF84214DF22120D8
:102F700000F0CEFF02214DF2222000F0C9FFA42173
:102F80004DF2232000F0C4FF02214DF2242000F076
:102F9000BFFFB7214DF2252000F0BAFF02214DF20C
:102FA000262000F0B5FFCF214DF2272000F0B0FF22
:102FB00002214DF2282000F0ABFFDE214DF2292046
:102FC00000F0A6FF02214DF22A2000F0A1FFF2211D
:102FD0004DF22B2000F09CFF02214DF22C2000F03E
:102FE00097FFFE214DF22D2000F092FF03214DF2BC
:102FF0002E2000F08DFF10214DF22F2000F088FFD1
:1030000003214DF2302000F083FF33214DF23120B7
:1030100000F07EFF03214DF2322000F079FF6D2198
:103020004DF2332000F074FF00214FF4534000F0C4
:103030006FFF33214DF2013000F06AFF00214DF2A5
:10304000023000F065FF34214DF2033000F060FFE4
:1030500000214DF2043000F05BFF3A214DF20530C3
:1030600000F056FF00214DF2063000F051FF4A21DA
:103070004DF2073000F04CFF00214DF2083000F017
:1030800047FF5C214DF2093000F042FF00214DF274
:103090000A3000F03DFF81214DF20B3000F038FF87
:1030A00000214DF20C3000F033FFA6214DF20D301F
:1030B00000F02EFF00214DF20E3000F029FFE52137
:1030C0004DF20F3000F024FF01214DF2103000F0DE
:1030D0001FFF13214DF2113000F01AFF01214DF2B4
:1030E000123000F015FF54214DF2133000F010FFA4
:1030F00001214DF2143000F00BFF82214DF215300A
:1031000000F006FF01214DF2163000F001FFCA2148
:103110004DF2173000F0FCFE02214DF2183000F0A5
:10312000F7FE00214DF2193000F0F2FE02214DF2BF
:103130001A3000F0EDFE01214DF21B3000F0E8FEE8
:1031400002214DF21C3000F0E3FE34214DF21D301F
:1031500000F0DEFE02214DF21E3000F0D9FE6721A4
:103160004DF21F3000F0D4FE02214DF2203000F06D
:10317000CFFE84214DF2213000F0CAFE02214DF233
:10318000223000F0C5FEA4214DF2233000F0C0FE35
:1031900002214DF2243000F0BBFEB7214DF2253064
:1031A00000F0B6FE02214DF2263000F0B1FECF2134
:1031B0004DF2273000F0ACFE02214DF2283000F035
:1031C000A7FEDE214DF2293000F0A2FE02214DF2D1
:1031D0002A3000F09DFEF2214DF22B3000F098FED7
:1031E00002214DF22C3000F093FEFE214DF22D30E5
:1031F00000F08EFE03214DF22E3000F089FE1021EA
:103200004DF22F3000F084FE03214DF2303000F0FB
:103210007FFE33214DF2313000F07AFE03214DF272
:10322000323000F075FE6D214DF2333000F070FE4B
:1032300000214FF4544000F06BFE33214DF2014069
:1032400000E07EE300F064FE00214DF2024000F059
:103250005FFE34214DF2034000F05AFE00214DF292
:10326000044000F055FE3A214DF2054000F050FEBA
:1032700000214DF2064000F04BFE4A214DF207407E
:1032800000F046FE00214DF2084000F041FE5C21B6
:103290004DF2094000F03CFE00214DF20A4000F0E2
:1032A00037FE81214DF20B4000F032FE00214DF23D
:1032B0000C4000F02DFEA6214DF20D4000F028FE3E
:1032C00000214DF20E4000F023FEE5214DF20F40AB
:1032D00000F01EFE01214DF2104000F019FE1321F6
:1032E0004DF2114000F014FE01214DF2124000F0A9
:1032F0000FFE54214DF2134000F00AFE01214DF261
:10330000144000F005FE82214DF2154000F000FE51
:1033100001214DF2164000F0FBFDCA214DF217408D
:1033200000F0F6FD02214DF2184000F0F1FD002101
:103330004DF2194000F0ECFD02214DF21A4000F070
:10334000E7FD00E000E301214DF21B4000F0E0FD4D
:1033500002214DF21C4000F0DBFD34214DF21D40F6
:1033600000F0D6FD02214DF21E4000F0D1FD672194
:103370004DF21F4000F0CCFD02214DF2204000F044
:10338000C7FD84214DF2214000F0C2FD02214DF223
:10339000224000F0BDFDA4214DF2234000F0B8FD15
:1033A00002214DF2244000F0B3FDB7214DF225403B
:1033B00000F0AEFD02214DF2264000F0A9FDCF2124
:1033C0004DF2274000F0A4FD02214DF2284000F00C
:1033D0009FFDDE214DF2294000F09AFD02214DF2C1
:1033E0002A4000F095FDF2214DF22B4000F090FDB7
:1033F00002214DF22C4000F08BFDFE214DF22D40BC
:1034000000F086FD03214DF22E4000F081FD1021D9
:103410004DF22F4000F07CFD03214DF2304000F0D2
:1034200077FD33214DF2314000F072FD03214DF262
:10343000324000F06DFD6D214DF2334000F068FD2B
:1034400000214FF4554000F063FD33214DF201504F
:1034500000F05EFD00214DF2025000F059FD3421D4
:103460004DF2035000F054FD00214DF2045000F0E5
:103470004FFD3A214DF2055000F04AFD00214DF27A
:10348000065000F045FD4A214DF2075000F040FD86
:1034900000214DF2085000F03BFD5C214DF2095037
:1034A00000F036FD00214DF20A5000F031FD81217F
:1034B0004DF20B5000F02CFD00214DF20C5000F0AD
:1034C00027FDA6214DF20D5000F022FD00214DF206
:1034D0000E5000F01DFDE5214DF20F5000F018FDDB
:1034E00001214DF2105000F013FD13214DF2115047
:1034F00000F00EFD01214DF2125000F009FD5421A3
:103500004DF2135000F004FD01214DF2145000F073
:10351000FFFC82214DF2155000F0FAFC01214DF222
:10352000165000F0F5FCCA214DF2175000F0F0FCE7
:1035300002214DF2185000F0EBFC00214DF2195021
:1035400000F0E6FC02214DF21A5000F0E1FC0121EE
:103550004DF21B5000F0DCFC02214DF21C5000F03B
:10356000D7FC34214DF21D5000F0D2FC02214DF267
:103570001E5000F0CDFC67214DF21F5000F0C8FC3A
:1035800002214DF2205000F0C3FC84214DF2215065
:1035900000F0BEFC02214DF2225000F0B9FCA42143
:1035A0004DF2235000F0B4FC02214DF2245000F003
:1035B000AFFCB7214DF2255000F0AAFC02214DF2DC
:1035C000265000F0A5FCCF214DF2275000F0A0FCC2
:1035D00002214DF2285000F09BFCDE214DF22950D3
:1035E00000F096FC02214DF22A5000F091FCF221ED
:1035F0004DF22B5000F08CFC02214DF22C5000F0CB
:1036000087FCFE214DF22D5000F082FC03214DF28B
:103610002E5000F07DFC10214DF22F5000F078FC70
:1036200003214DF2305000F073FC33214DF2315044
:1036300000F06EFC03214DF2325000F069FC6D2168
:103640004DF2335000F064FC00214FF4564000F07E
:103650005FFC33214DF2016000F05AFC00214DF275
:10366000026000F055FC34214DF2036000F050FC84
:1036700000214DF2046000F04BFC3A214DF2056050
:1036800000F046FC00214DF2066000F041FC4A21AA
:103690004DF2076000F03CFC00214DF2086000F0A4
:1036A00037FC5C214DF2096000F032FC00214DF244
:1036B0000A6000F02DFC81214DF20B6000F028FC27
:1036C00000214DF20C6000F023FCA6214DF20D60AC
:1036D00000F01EFC00214DF20E6000F019FCE52107
:1036E0004DF20F6000F014FC01214DF2106000F06B
:1036F0000FFC13214DF2116000F00AFC01214DF284
:10370000126000F005FC54214DF2136000F000FC43
:1037100001214DF2146000F0FBFB82214DF2156097
:1037200000F0F6FB01214DF2166000F0F1FBCA211A
:103730004DF2176000F0ECFB02214DF2186000F032
:10374000E7FB00214DF2196000F0E2FB02214DF28F
:103750001A6000F0DDFB01214DF21B6000F0D8FB88
:1037600002214DF21C6000F0D3FB34214DF21D60AC
:1037700000F0CEFB02214DF21E6000F0C9FB672174
:103780004DF21F6000F0C4FB02214DF2206000F0FA
:10379000BFFB84214DF2216000F0BAFB02214DF203
:1037A000226000F0B5FBA4214DF2236000F0B0FBD5
:1037B00002214DF2246000F0ABFBB7214DF22560F1
:1037C00000F0A6FB02214DF2266000F0A1FBCF2104
:1037D0004DF2276000F09CFB02214DF2286000F0C2
:1037E00097FBDE214DF2296000F092FB02214DF2A1
:1037F0002A6000F08DFBF2214DF22B6000F088FB77
:1038000002214DF22C6000F083FBFE214DF22D6071
:1038100000F07EFB03214DF22E6000F079FB1021B9
:103820004DF22F6000F074FB03214DF2306000F088
:103830006FFB33214DF2316000F06AFB03214DF242
:10384000326000F065FB6D214DF2336000F060FBEB
:103850005521584600F05CFBAA21184600F058FBA1
:103860005221204600F054FB0821304600F050FB66
:103870000021384600F04CFBCC21484600F048FBC4
:103880000021504600F044FB0521404600F040FB7B
:1038900070214FF4374000F03BFB70214BF2017078
:1038A00000F036FB01214FF4384000F031FB0321DA
:1038B0004BF6010000F02CFB03214BF6020000F058
:1038C00027FB03214BF6030000F022FB02214FF4FB
:1038D0003C4000F01DFB00214BF6014000F018FBBE
:1038E00000214BF6024000F013FBD0214FF4494079
:1038F00000F00EFB02214CF6011000F009FB5021F4
:103900004CF6021000F004FB50214CF6031000F0BE
:10391000FFFA50214CF6041000F0FAFA00214FF49F
:10392000545000F0F5FA55214FF4685000F0F0FAC9
:103930004FF4885000F0D6FA7820FCF75FFF4FF480
:10394000245000F0CFFAB9E04845FCD1E22000F065
:10395000C9FA1D2000F0BAFA022000F0B7FA0420DC
:1039600000F0B4FA6420FCF749FFE02000F0BAFA56
:10397000012000F0ABFA0A20FCF740FFE02000F045
:10398000B1FA032000F0A2FA0C20FCF737FF012067
:1039900000F0A8FA0A20FCF731FFE62000F0A2FAB6
:1039A0002F2000F093FAFF2000F090FAFF2000F0A3
:1039B0008DFAB02000F096FA202000F087FA00205F
:1039C00000F084FA032000F081FA40F21F3000F08A
:1039D0007DFA012000F07AFA40F2DF1000F076FA6A
:1039E000002000F073FAB42000F07CFA042000F00C
:1039F0006DFA40F21F4000F069FA002000F066FA0C
:103A00002E2000F063FA002000F060FA002000F0A1
:103A10005DFA002000F05AFA002000F057FAB620B4
:103A200000F060FA022000F051FA4FF4037000F049
:103A30004DFA002000F04AFA172000F047FA15204E
:103A400000F044FA002000F041FA002000F03EFAB5
:103A5000F02000F047FA032000F038FA292000F0A7
:103A600041FAD02000F03EFA002000F02FFABE20EC
:103A700000F038FA052000F029FAFE2000F026FABE
:103A8000012000F023FA002000F020FA002000F0CE
:103A90001DFA002000F01AFAB82000F023FA0320E3
:103AA00000F014FA012000F011FABA2000F01AFA1E
:103AB000012000F00BFA642000F012F80020FDF75E
:103AC000E7FC2846BDE8F05FFDF7CABC034808B52F
:103AD0000088ADF80000BDF8000008BD00000860D7
:103AE00010B50246BE2000F0FDF9052000F0EEF909
:103AF000104600F0DCFC9FED0C1B53EC112B00F08A
:103B0000E9FC00F0A7FC80B200F0E0F9012000F031
:103B1000DDF9FF2000F0DAF9002000F0D7F9BDE868
:103B20001040002000F0D2B9666666666666044002
:103B300070B55E4C00232146A279898841F6631650
:103B4000012A01D01AB10CE0B14202D109E0B14220
:103B500007D1082805D2DFE800F0161812140C1956
:103B6000100E082812D2DFE800F0110406080A0C33
:103B70000E1080230AE0402308E0C02306E0202343
:103B800004E0602302E0A02300E0E02345F21055AA
:103B9000A94202D14FF4585000E03620A1F513425B
:103BA000413A03D0A1F5EE42893A01D143F008032E
:103BB000194600F0ADF9A188B1420AD098062088D4
:103BC000628802D5904202D303E0904201D922805C
:103BD00060806089A94240D100F084F9002000F0A3
:103BE00075F96089401C80B200F07CF9002000F07B
:103BF0006DF96089801C80B200F074F92088401E45
:103C0000C0F30F2000F062F96089C01C80B200F0A0
:103C100069F92078401EC0B200F058F9A08900F080
:103C200061F9002000F052F9A089401C80B200F038
:103C300059F9002000F04AF9A089801C80B200F0F8
:103C400051F96088401EC0F30F2000F03FF9A089B1
:103C5000C01C80B200F046F921E000F043F90020DA
:103C600000F034F9002000F031F92088401EC0F344
:103C70000F2000F02BF92078401EC0B200F026F98A
:103C8000A08900F02FF9002000F020F9002000F0BA
:103C90001DF96088401EC0F30F2000F017F9A078CE
:103CA000BDE87040401EC0B200F010B9C400002052
:103CB000F0B53B4A0D460446060A918810462F0A85
:103CC0004089A1F5C853633B16D0A1F5AA43103B28
:103CD0004CD000F007F9304600F0F8F8E0B200F000
:103CE000F5F8908900F0FEF8384600F0EFF8E8B2F9
:103CF000BDE8F04000F0EAB8917931B300F0F2F895
:103D0000304600F0E3F8E0B200F0E0F81088401E22
:103D1000C0F30F2000F0DAF81078401E5FFA80F050
:103D200000F0D4F8908900F0DDF8384600F0CEF8C5
:103D3000E8B200F0CBF85088401EC0F30F2000F02E
:103D4000C5F89078401EC0B2D2E71188091B491E01
:103D50008CB200F0C7F8002000F0B8F8002000F0A6
:103D6000B5F8200A00F0B2F8E0B2D9E700F0BAF8EE
:103D7000304600F0ABF85089401C80B200F0B2F839
:103D8000E0B200F0A3F8908900F0ACF8384600F0FB
:103D90009DF89089401C80B200F0A4F8A7E70000CD
:103DA000C40000202DE9FF4F1D460C468A465807E7
:103DB00000D0012000EBD500690810FB01F0203A8B
:103DC00000F0FF09D0B20026DFF898B0029044E07E
:103DD0000C2D11D0102D14D0182D40D1029822494D
:103DE00000EBC00001EB80004FF00008875D380653
:103DF0000CD51E4802880DE002981D4900EB4000DA
:103E0000F0E71C49029801EB0010EDE70D9828B986
:103E10001648428821460098FDF796FB7806070E63
:103E2000641CBBF80200A4B2A04218D9A4EB0A009B
:103E3000A84209D100985446401C80B20090BBF8BB
:103E4000001081420BD906E008F1010000F0FF08E4
:103E5000B8F1080FCBD3761CF6B24E45B8D3BDE807
:103E6000FF8F0000C40000204E5100081800002001
:103E7000EA4600085E4B00082DE9F84F044600F0C2
:103E8000FF0910190D46DDE90AB61FFA80F8581926
:103E900087B24FF0000A12E0444503D305EB0B0054
:103EA0004C4685B2BD420FD25B4629462046CDF82E
:103EB00000A0FFF777FF04EB5B0084B2761C32783A
:103EC000A2F120005E28E7D9BDE8F88F01B5BDF862
:103ED0000000ADF80000BDF800000149088008BDF1
:103EE0000000086001B5BDF80000ADF80000BDF8A5
:103EF00000000149088008BDFEFF07600248034931
:103F00000089088070470000C4000020FEFF0760A1
:103F1000024A1080901C018070470000FEFF07607D
:103F200010B58EB01C216846FCF719FB1C2107A8B0
:103F3000FCF715FB1A484FF0204110220160194987
:103F4000416000218160C160C0E904128161C161EA
:103F500013020162C0E909139302C0E90B13416324
:103F6000816341640F203C230090CDE9010303AC41
:103F7000112384E80E0009240691CDE9074009AC1D
:103F8000082084E80F000D9107AA69460448FDF750
:103F900021FA002801D0FCF7BEFB0EB010BD0000D6
:103FA0001C000020040100A070B586B014216846F2
:103FB000FCF7D5FA2A480024016841F004010160A9
:103FC000016801F004010591016841F08001016080
:103FD000016801F080010591016841F00201016072
:103FE000016801F002010591016841F010010160D2
:103FF000016801F010010591016841F008010160BC
:10400000016801F008010591016841F001010160BA
:104010000068144E00F001000590012241F20201F7
:104020003046FCF734FD202001258DE8310069463B
:104030000D48FCF72FFC02200090CDE901546946A1
:1040400030460394FCF726FC2803CDE90005032045
:10405000CDE9024069463046FCF71CFC06B070BD55
:10406000303802400004024000080240104810B5F9
:104070000E4901604FF48271416000218160C1608E
:104080004FF400720161C0E905121822C0E907214E
:10409000416281620A21C162FDF710F8002803D055
:1040A000BDE81040FCF737BB10BD000000380040F1
:1040B0006C000020FEE7FEE770470000F8B51546EB
:1040C0000E460B46009204460122022100F02CF815
:1040D000A0B9134813490068B0FBF1F04FF47A71AE
:1040E000484300906068B0F5827F0DD133460022CE
:1040F00080212046009500F017F870B1606D40F007
:10410000200060650320F8BD009830B1401E00908B
:1041100020688068C0430006F6D50020F8BD000086
:104120001400002000366E012DE9F8431E4691462A
:1041300088460446089DFCF7AFFC401B351AFCF787
:10414000ABFC074626480068C0F3CB3068430AE062
:10415000701C09D0FCF7A0FCC01BA8420FD275B19F
:104160000098B8B3401E00902068816838EA0100CA
:1041700033D000214945EBD10020BDE8F883206809
:10418000416821F0E00141606068B0F5827F0BD1A9
:10419000A068B0F5004F02D0B0F5806F04D1206860
:1041A000016821F040010160A06AB0F5005F09D10B
:1041B0002068016821F4005101602068016841F421
:1041C00000510160012084F85100002084F8500063
:1041D0000320D2E7FFE70025C6E70121CAE7000078
:1041E000140000207047FCF75DBC000030B593B0B0
:1041F00030216846FCF7B3F914210CA8FCF7AFF99D
:104200001D480025016841F080510160006800F000
:10421000805011901948016841F4804101600068A4
:10422000022400F4804011900120009000040190CD
:104230008001CDE9064008AA0420A82182E81300E5
:104240000B906846FCF784FD08B172B6FEE70CA936
:104250000F2081E831004FF4A0500F904FF48050B0
:10426000109005210CA8FCF7A9FC002801D072B61B
:10427000FEE713B030BD000040380240007000403F
:104280000248016841F470010160704788ED00E068
:10429000FEE700002DE9FE430F4680460024202162
:1042A0001848FCF7EFFB50BB174E4FF48055002227
:1042B00029463046FCF7EBFB64248DF8047001239B
:1042C00002AA01A940460094FCF78CFF3120401E51
:1042D00080B2FCD200208DF80400022302AA01A9BA
:1042E00040460094FCF77EFFBDF80800012240BA6A
:1042F00020F40040C40829463046FCF7C8FB20469D
:10430000BDE8FE830008024000040240FEB50E46F0
:10431000074600256C4631463846FFF7BBFF24F8B8
:1043200015006D1CADB2052DF5D30020411C0B46C8
:104330000BE000BF34F8102034F81150AA4203D922
:1043400024F8105024F81120491C89B20529F1D312
:1043500098B20428EAD300215FF0010034F810205D
:10436000401C114480B289B20428F7D30320B1FB6A
:10437000F0F0FEBD0907090E002804DB00F1E02083
:1043800080F80014704700F00F0000F1E02080F882
:10439000141D704730380A2801D2012070470020D0
:1043A0007047000088B0FCF785FBFFF71FFFFFF7A1
:1043B000FBFDFFF7B5FDFFF759FEFDF72DF94FF6B1
:1043C000E070FDF74DF81A491F20088019494FF495
:1043D000FC600880142102A8FCF7C1F802AE182482
:1043E0004FF4C875D0211448FFF790FF024613A17F
:1043F00002A8FBF7B5FFCDE900462B460A211A4675
:104400000846FFF739FD90210B48FFF77FFF024672
:104410000DA102A8FBF7A4FFCDE900462B461A46E2
:1044200028210A20FFF728FD6420FCF7E7F9D9E7E7
:10443000180000201A0000206C0000204144435F57
:10444000583A2534640000004144435F593A25340A
:10445000640000004FEA1153A3F58063D3F11E03FB
:10446000A8BFD3F1200C08DB4FF0004242EAC12282
:1044700052EA505232FA03F0704709420BD4102B23
:10448000C4BF0020704703F5787CBCF1FF3F05D026
:104490004FF0FF3070474FF00000704770B500F0EC
:1044A000C3F800BF4992248000207047F0E7B0FABB
:1044B00080F310FA03F10AD0C3F11D0303F5806302
:1044C0004FEA41504FEA035202EBD12170474FF0BF
:1044D00000007047DFF848C170B51CEA111E1EBF0E
:1044E0001CEA13159EEA0C0F95EA0C0F00F06F8082
:1044F00081EA030423EA4C134EEAD47E21EA4C11EC
:1045000041F4801143F48013AE44A1FB024CA0FBA4
:104510000365AEF17F7E361955EB0C05A1FB034C0C
:104520004CF10003A0FB021C16EB0C06654153F195
:104530000003094218BF46F0010613F4007F0BD1B7
:104540004FEA03314FEA0530340341EA155140EA9E
:1045500016506FF003020AE04FEAC3214FEAC5206C
:10456000F40241EA555140EA56506FF0020202EB64
:104570002E4201EB025585EACE710AD05FEA440C67
:1045800018BF24F0004450F1000041F1000120EA7E
:10459000D47040F2FE7C624500D270BDA84214BFC8
:1045A0004FF080444FF04044002E08BF0024BEF17D
:1045B000806FA8BFA1F1C041BDE8704080F2828049
:1045C0004FF0000001F1C04101F0004170479EEA48
:1045D0000C0F0CEA131518BF95EA0C0F06D04FF01C
:1045E000000081EA030E0EF0004170BD00F01CF8DF
:1045F0008900013E00F007B800F009B84FEA430C0B
:104600005FEA5C5C08D081EA030100F05BB84FEA26
:10461000410C5FEA5C5CF6D14FF000000149704745
:104620000000FF070000F87F0EF1020E2EF0030ECF
:104630005EF8046B364205D4012A43EB030515F5F9
:10464000001F12D8012841EB010C1CF5001F0CD8EB
:104650000ED14FEAD17C15F5001F0CEB4C0C0CF180
:10466000020C08BF4CEBD37C04E04FF0080C01E0D7
:104670004FEAD37C0CEB4C0526FA05F606F007064C
:10468000B6F1040C06D20EEB860CBDE870404CF07F
:10469000010C6047DFE80CF0090B02024FF000410B
:1046A0004FF00000A1F5002170BD19461046012809
:1046B00051EB010418BFD4F5001484BF002001F0B1
:1046C000004170BD0808A0F500114FEA31017047A4
:1046D0004FF04070E1EE100A70470000000000004B
:1046E00000000102030406070809000000000000A2
:1046F000000000000000000000003F40000000003B
:1047000000000000300040003000400000000900C0
:104710000BC03D000BC03D00090018C024407FE0E5
:10472000224031800000180024C01B000D80324060
:10473000018003801C4027401C800740004010007F
:104740006000000000000000000000000000000009
:104750001F80204040200000402020401F8000009B
:104760000000090006001F80060009000000040088
:1047700004003F80040004000000001000600000FE
:104780000000000000000400040004000400040015
:1047900000000000004000000000000000000020B9
:1047A00001C006003800400000001F80204020406B
:1047B00020401F800000000010403FC0004000006B
:1047C000000018C021402240244018400000108002
:1047D0002040244024401B80000002000D001100F6
:1047E0003FC0014000003C802440244024402380FE
:1047F00000001F802440244034400380000030002B
:10480000200027C03800200000001B8024402440E6
:1048100024401B8000001C0022C0224022401F8038
:104820000000000000000840000000000000000040
:1048300000000460000000000000000004000A0006
:10484000110020804040090009000900090009000A
:10485000000000004040208011000A000400180001
:10486000200023402400180000001F802040274023
:1048700029401F400000004007C039000F0001C060
:10488000004020403FC0244024401B8000001F8087
:104890002040204020403080000020403FC0204089
:1048A00020401F80000020403FC024402E4030C0E8
:1048B000000020403FC024402E00300000000F00C8
:1048C0001080204022403380020020403FC004007E
:1048D00004003FC02040204020403FC020402040F6
:1048E00000000060202020203FC020002000204049
:1048F0003FC024400B0030C0204020403FC020403B
:104900000040004000C03FC03C0003C03C003FC02E
:10491000000020403FC00C4023003FC020001F800B
:104920002040204020401F80000020403FC0244005
:104930002400180000001F802140214020E01FA01B
:10494000000020403FC02440260019C0004018C08D
:1049500024402440224031800000300020403FC0ED
:1049600020403000000020003F80004000403F8099
:10497000200020003E0001C0070038002000380061
:1049800007C03C0007C038000000204039C00600C6
:1049900039C0204000002000384007C038402000C7
:1049A0000000304021C02640384020C000000000F8
:1049B00000007FE0402040200000000070000C005C
:1049C0000380004000000000402040207FE0000005
:1049D0000000000020004000200000000000001047
:1049E0000010001000100010001000000000400037
:1049F000000000000000000002800540054003C0E8
:104A0000004020003FC0044004400380000000003C
:104A1000038004400440064000000000038004407E
:104A200024403FC000400000038005400540034093
:104A30000000000004401FC024402440200000006B
:104A400002E0055005500650042020403FC00440BD
:104A5000040003C000400000044027C000400000E4
:104A6000000000100010041027E0000000002040AB
:104A70003FC00140070004C00440204020403FC028
:104A800000400040000007C0040007C0040003C04D
:104A90000000044007C00440040003C000400000C0
:104AA00003800440044003800000041007F0045019
:104AB000044003800000000003800440045007F01D
:104AC0000010044007C00240040004000000000081
:104AD00006400540054004C00000000004001F809F
:104AE000044000400000040007800040044007C06C
:104AF00000400400070004C0018006000400060016
:104B000001C0070001C006000000044006C001000B
:104B100006C0044000000410071004E001800600F5
:104B200004000000044005C00640044000000000EE
:104B3000000004007BE040200000000000000000B6
:104B4000FFF000000000000040207BE004000000B7
:104B500000004000800040002000200040000000D5
:104B60000000000000000000000000000000000045
:104B7000000000001FCC000C00000000000000003E
:104B800008003000600008003000600000000220D3
:104B900003FC1E20022003FC1E2002200000000057
:104BA0000E1811043FFF10840C78000000000F0065
:104BB00010840F3800C0077818840078000000784F
:104BC0000F8410C411240E9800E40084000808002B
:104BD00068007000000000000000000000000000FD
:104BE0000000000007E01818200440020000000048
:104BF00040022004181807E00000000000000240F6
:104C0000024001800FF0018002400240000000805D
:104C1000008000800FF8008000800080000000010C
:104C2000000D000E00000000000000000000000069
:104C300000800080008000800080008000800000F4
:104C4000000C000C0000000000000000000000004C
:104C50000006001800600180060018002000000017
:104C600007F0080810041004080807F0000000000E
:104C7000080408041FFC00040004000000000000F9
:104C80000E0C10141024104411840E0C00000000AF
:104C90000C1810041104110412880C70000000009C
:104CA00000E00320042408241FFC0024000000006E
:104CB0001F98108411041104108810700000000067
:104CC00007F0088811041104188800700000000023
:104CD0001C00100010FC13001C001000000000005D
:104CE0000E3811441084108411440E380000000066
:104CF0000700088C10441044088807F000000000EA
:104D000000000000030C030C000000000000000085
:104D1000000000010106000000000000000000008B
:104D20000080014002200410080810040000022046
:104D300002200220022002200220022000000000A7
:104D40001004080804100220014000800000000048
:104D50000E001200100C106C10800F00000003E019
:104D60000C1813E4142417C4082807D0000000040A
:104D7000003C03C41C40074000E4001C0004100475
:104D80001FFC1104110411040E880070000003E0E0
:104D90000C1810041004100410081C10000010045B
:104DA0001FFC100410041004080807F00000100491
:104DB0001FFC1104110417C410040818000010048B
:104DC0001FFC1104110017C010000800000003E0D0
:104DD0000C181004100410441C780040000010044B
:104DE0001FFC10840080008010841FFC1004000051
:104DF000100410041FFC1004100400000000000345
:104E00000001100110011FFE10001000000010042E
:104E10001FFC110403801464181C1004000010040B
:104E20001FFC1004000400040004000C0000100427
:104E30001FFC1F0000FC1F001FFC100400001004DA
:104E40001FFC0C04030000E010181FFC100007F00A
:104E50000808100410041004080807F000001004EB
:104E60001FFC10841080108010800F00000007F0DD
:104E7000081810241024101C080A07F2000010045F
:104E80001FFC1104110011C011300E0C00040000B1
:104E90000E1C11041084108410441C3800001800EB
:104EA000100010041FFC1004100018000000100077
:104EB0001FF810040004000410041FF81000100074
:104EC0001E0011E0001C007013801C0010001FC0A9
:104ED000103C00E01F0000E0103C1FC00000100468
:104EE000180C163401C001C01634180C1004100040
:104EF0001C00130400FC13041C0010000000080434
:104F0000101C1064108413041C041018000000000E
:104F1000000000007FFE400240024002000000004E
:104F200030000C0003800060001C00030000000043
:104F30004002400240027FFE00000000000000002E
:104F40000000200040004000400020000000000160
:104F5000000100010001000100010001000100004A
:104F600040004000200000000000000000000000A1
:104F70000098012401440144014400FC0004100095
:104F80001FFC00880104010400880070000000007C
:104F90000070008801040104010400880000000082
:104FA000007000880104010411081FFC00040000C7
:104FB00000F8014401440144014400C8000000001D
:104FC000010401040FFC1104110411001800000079
:104FD00000D601290129012901C901060000100498
:104FE0001FFC008401000100010400FC000400001B
:104FF0000104190419FC0004000400000000000072
:10500000000300010101190119FE00000000100455
:105010001FFC0024004001B4010C0104000000004A
:10502000100410041FFC0004000400000000010430
:1050300001FC0104010001FC0104010000FC010469
:1050400001FC008401000100010400FC00040000D8
:1050500000F8010401040104010400F8000001014A
:1050600001FF0085010401040088007000000000B9
:105070000070008801040104010501FF0001010422
:10508000010401FC00840104010001800000000013
:1050900000CC012401240124012401980000000017
:1050A0000100010007F801040104000000000100F4
:1050B00001F8000400040004010801FC00040100E0
:1050C00001800170000C001001600180010001F0FE
:1050D000010C003001C00030010C01F001000000A3
:1050E0000104018C00740170018C010400000101B5
:1050F00001810171000E00180160018001000000B3
:105100000184010C013401440184010C0000000001
:1051100000000000000001003EFC400240020000D0
:10512000000000000000FFFF000000000000000081
:10513000400240023EFC01000000000000000000B0
:10514000600080008000400040002000200000003F
:10515000000000000000000000000000000000004F
:10516000000000000000000000000000000000003F
:10517000000000000000000000000000000000002F
:10518000000F80380FFE380F80380000000000004C
:105190000000000000000000000000000100000608
:1051A00000000C00003800003100000600000C0078
:1051B00000380000300000000000000000006180A6
:1051C0000067F807F980006180006180006180005D
:1051D00061800067F807F98000618000000000002E
:1051E0000000000001C0E003E0F0063008041808E9
:1051F0001FFFFE040E080787F00381E00000000097
:10520000000001F000060C00040408060C7001F90F
:10521000C0000E00003BE000EC18070808040C1862
:105220000003E00000000001E00007F003F81804AC
:105230001C0804170807E1D003C0E00023B0003CBD
:10524000080020080000100000000000000100001D
:105250003100003200001C000000000000000000CF
:10526000000000000000000000000000000000003E
:1052700000000000000000000000000000007F00AF
:1052800001FFC00780F00C0018100004200002008D
:1052900000000000002000021000040C001807802D
:1052A000F001FFC0007F00000000000000000000CF
:1052B0000000000000000000000042000066000046
:1052C0006600003C0000180003FFC0001800003C0E
:1052D00000006600006600004200000000000800B8
:1052E00000080000080000080000080001FFC000DE
:1052F0000800000800000800000800000800000086
:105300000000000100003100003200001C0000001D
:10531000000000000000000000000000000000008D
:10532000000000000000080000080000080000085D
:105330000000080000080000080000080000080045
:10534000000800000000000000000000000038001D
:1053500000380000380000000000000000000000DD
:105360000000000000000000000000000000000637
:1053700000001C000070000180000E0000380000DA
:10538000C0000700001C000030000000000000000A
:1053900000007F8001FFE003807006001804000811
:1053A00004000806001803807001FFE0007F800001
:1053B00000000000000000000100080100080100DA
:1053C0000803FFF807FFF8000008000008000008C5
:1053D00000000000000000000001C03802C05804B6
:1053E0000098040118040218040418061C1803F895
:1053F0001801E0F800000000000000000001C0E01B
:1054000003C0F0040008040808040808061808038C
:10541000F41801E7F00001E00000000000000000C7
:1054200000000300000D0000110000610000810871
:1054300003010807FFF80FFFF8000108000108004A
:1054400000000000000000E007FCD006080806107D
:1054500008061008061008061838060FF00607C0E0
:10546000000000000000000000003F8001FFE0039A
:1054700084300208180410080410080410080718E3
:1054800010030FF00007C000000000000000000043
:1054900003C0000700000600000600F80607F80633
:1054A000180006E0000700000600000000000000F1
:1054B0000001E1E003F7F0063410041808041808AE
:1054C000040C08040C0806161803F3F001C1E000F0
:1054D000000000000000F80003FC3003063804025E
:1054E000080402080402080404100308F001FFC0C5
:1054F000007F00000000000000000000000000002D
:1055000000000000000070380070380070380000A3
:10551000000000000000000000000000000000008B
:1055200000000000000000000000301A00301C00E5
:10553000000000000000000000000000000000006B
:1055400000000000000800001400002200004100DC
:1055500000808001004002002004001008000800C4
:1055600000000000000021000021000021000021B7
:105570000000210000210000210000210000210086
:1055800000210000000000000000000008000804E6
:105590000010020020010040008080004100002235
:1055A0000000140000080000000000000003C0001C
:1055B00004C000040000080038080F380808380844
:1055C00010000C300007E00003C0000000000000E5
:1055D00000003F8000FFE0038070020F100670881B
:1055E00004C088048308047F8802C090030120005F
:1055F000FE400000080000180001F8003E0801C24B
:105600000007020007E20000FE00001FC80001F8CA
:1056100000003800000804000807FFF807FFF8043E
:10562000080804080804080804080806180803F411
:105630001801E7F00001E0000000000000003F80DA
:1056400001FFE00380700200180400080400080451
:1056500000080400100600200780C00000000400BD
:105660000807FFF807FFF804000804000804000812
:1056700004001802001003807001FFE0007F80002A
:10568000000004000807FFF807FFF80408080408F2
:1056900008040808040808043E0804000806001866
:1056A00001006000000004000807FFF807FFF8048D
:1056B0000808040800040800040800043E0006006E
:1056C00000060000018000000000000000003F8094
:1056D00001FFE003807006001804000804020804BB
:1056E00002080203F00783F0000200000200040039
:1056F0000807FFF807FFF804080800080000080082
:1057000000080000080004080807FFF807FFF80475
:105710000008000000000000040008040008040065
:105720000807FFF807FFF804000804000804000851
:10573000000000000000000000000006000007005C
:10574000000104000104000104000307FFFE07FF3D
:10575000FC04000004000004000004000807FFF837
:1057600007FFF8040C08001800003E0004C780057D
:1057700003C80600F80400380400180000080400FC
:105780000807FFF807FFF8040008000008000008F9
:105790000000080000080000080000180000600079
:1057A000000004000807FFF807800807FC00007FDE
:1057B000C00003F80007C000780007800807FFF862
:1057C00007FFF804000804000807FFF807000803B3
:1057D000C00000E000003800001E000007000001CB
:1057E000C00400F007FFF8040000000000007F8004
:1057F00001FFE0038070060018040008040008069A
:10580000001803003001FFE0007F8000000004006A
:105810000807FFF807FFF804040804040004040064
:10582000040400040400060C0003F80001F000006A
:105830000000000000007F8001FFE0038070060090
:10584000880400880400C806003C03003E01FFE60F
:10585000007F8400000004000807FFF807FFF80439
:105860000808040800040C00040F00040BC0061014
:10587000F003F03801E00800000800000001E0F843
:1058800003F030063010041808041808040C08044B
:105890000C080206180207F00781E00000000180F2
:1058A0000006000004000004000004000807FFF8E0
:1058B00007FFF804000804000004000006000001CF
:1058C000800004000007FFE007FFF004001800005C
:1058D000080000080000080000080000080400108C
:1058E00007FFE004000004000006000007E00007D6
:1058F000FE00041FE00001F80000380001E0043E53
:105900000007C00006000004000004000007E000DB
:1059100007FFC0041FF80007C007F80007FF800456
:105920003FF80007C004F800070000040000000072
:105930000004000806001807C07805F1C8003E0002
:10594000001F800463E80780F806001804000800C0
:10595000000004000006000007800007E008047C47
:1059600008001FF80007F800180804E00807000006
:1059700006000004000000000001000806003804D2
:1059800000F80403E8040F08047C0805F00807C0C9
:10599000080700180400600000000000000000007C
:1059A0000000000000000000003FFFFE2000022079
:1059B000000220000220000220000200000000007F
:1059C0000000000008000007000000C000003800D0
:1059D0000006000001C000003000000E00000100C1
:1059E0000000000000000000200002200002200053
:1059F000022000022000023FFFFE00000000000025
:105A0000000000000000000000000000000000088E
:105A100000001000003000002000003000001000E6
:105A2000000800000000000000000000010000016C
:105A30000000010000010000010000010000010061
:105A40000001000001000001000001000001000051
:105A500000000000000000200000200000100000F6
:105A60001000000000000000000000000000000026
:105A700000000000000000F00019F8001B180022D0
:105A800008002608002408002410003FF8001FF832
:105A900000000800001800000004000007FFF80FD5
:105AA000FFF000181800100800200800200800303F
:105AB00018001FF0000FC00000000000000007C029
:105AC000001FF00018300020080020080020080007
:105AD0003C08001C100000600000000000000000F6
